:100000000C9465000C948D000C948D000C948D0064
:100010000C948D000C948D000C948D000C948D002C
:100020000C948D000C948D000C948D000C948D001C
:100030000C948D000C948D000C948D000C948D000C
:100040000C9410040C948D000C9480040C945A04AD
:100050000C948D000C948D000C948D000C948D00EC
:100060000C948D000C948D00000102030405000027
:100070000000240027002A000000000025002800BE
:100080002B000000000023002600290004040404C3
:100090000404040402020202020203030303030332
:1000A000010204081020408001020408102001020F
:1000B00004081020000000080002010000030407EB
:1000C0000000000000000000B20411241FBECFEFAA
:1000D000D8E0DEBFCDBF22E0AEE8B1E001C01D92A6
:1000E000A437B207E1F711E0A0E0B1E0E6E9F0E102
:1000F00002C005900D92AE38B107D9F710E0C5E601
:10010000D0E004C02197FE010E943A08C436D1070E
:10011000C9F70E9402050C9449080C940000833032
:1001200081F028F4813099F08230A9F00895873069
:10013000A9F08830C9F08430B1F4809180008F7DBF
:1001400003C0809180008F7780938000089584B5EC
:100150008F7784BD089584B58F7DFBCF8091B000EB
:100160008F778093B00008958091B0008F7DF9CF94
:10017000CF93DF93282F30E0F901EC54FF4F8491A7
:10018000F901E056FF4FD491F901E457FF4FC491B4
:10019000CC23A1F081110E948F00EC2FF0E0EE0F34
:1001A000FF1FEE57FF4FA591B491EC91ED2381E035
:1001B00090E009F480E0DF91CF91089580E090E035
:1001C000FACF1F93CF93DF93282F30E0F901EC543F
:1001D000FF4F8491F901E056FF4FD491F901E457A4
:1001E000FF4FC491CC23A9F0162F81110E948F00DC
:1001F000EC2FF0E0EE0FFF1FE858FF4FA591B491F0
:100200008FB7F894EC91111108C0D095DE23DC93E0
:100210008FBFDF91CF911F910895DE2BF8CF682F0C
:10022000809151020E94E10080916F0290917002D2
:100230008230910538F0880F991F880F991F059714
:100240000197F1F7089581E00C940F01682F8091D8
:1002500050029091510289130C94E1000895CF93BC
:10026000DF9390E0FC01E056FF4F249184579F4FAD
:10027000FC0184918823D1F090E0880F991FFC0144
:10028000E259FF4FA591B491FC01E858FF4FC59189
:10029000D491623071F49FB7F8943C91822F80958D
:1002A00083238C93E8812E2B28839FBFDF91CF91EE
:1002B00008958FB7F894EC912E2B2C938FBFF6CF27
:1002C0003FB7F8948091AC019091AD01A091AE013F
:1002D000B091AF0126B5A89B05C02F3F19F001963C
:1002E000A11DB11D3FBFBA2FA92F982F8827BC0190
:1002F000CD01620F711D811D911D42E0660F771FB8
:10030000881F991F4A95D1F708958F929F92AF92B7
:10031000BF92CF92DF92EF92FF924B015C010E945D
:1003200060016B017C010E9460016C197D098E09DE
:100330009F09683E734081059105A8F321E0821A68
:100340009108A108B10888EEC80E83E0D81EE11C10
:10035000F11C81149104A104B10429F7FF90EF90DE
:10036000DF90CF90BF90AF909F908F900895AF9205
:10037000BF92CF92DF92EF92FF920F931F93CF9392
:10038000DF936C017B018B01040F151FEB015E01F4
:10039000AE18BF08C017D10759F06991D601ED9189
:1003A000FC910190F081E02DC6010995892B79F728
:1003B000C501DF91CF911F910F91FF90EF90DF90DA
:1003C000CF90BF90AF900895FC01538D448D252FA1
:1003D00030E0842F90E0821B930B541710F0CF96DF
:1003E000089501970895FC01918D828D981761F011
:1003F000A28DAE0FBF2FB11D5D968C91928D9F5F28
:100400009F73928F90E008958FEF9FEF0895FC0106
:10041000918D828D981731F0828DE80FF11D858DB9
:1004200090E008958FEF9FEF0895FC01918D228D4C
:10043000892F90E0805C9F4F821B91098F739927D1
:10044000089580EB91E00E94150221E0892B09F4C8
:1004500020E0822F089580E090E0892B29F00E940F
:10046000210281110C9400000895FC01A48DA80FB5
:10047000B92FB11DA35ABF4F2C91848D90E00196E6
:100480008F739927848FA689B7892C93A089B18906
:100490008C91837080648C93938D848D981306C0A7
:1004A0000288F389E02D80818F7D80830895EF920B
:1004B000FF920F931F93CF93DF93EC0181E0888F1E
:1004C0009B8D8C8D98131AC0E889F989808185FFEE
:1004D00015C09FB7F894EE89FF896083E889F98990
:1004E00080818370806480839FBF81E090E0DF9192
:1004F000CF911F910F91FF90EF900895F62E0B8DE5
:1005000010E00F5F1F4F0F731127E02E8C8D8E119F
:100510000CC00FB607FCFACFE889F989808185FF06
:10052000F5CFCE010E943502F1CFEB8DEC0FFD2F00
:10053000F11DE35AFF4FF0829FB7F8940B8FEA89C1
:10054000FB8980818062CFCFCF93DF93EC01888DD0
:100550008823B9F0AA89BB89E889F9898C9185FD3E
:1005600003C0808186FD0DC00FB607FCF7CF8C91CC
:1005700085FFF2CF808185FFEDCFCE010E9435024D
:10058000E9CFDF91CF9108958EBD00000DB407FE35
:10059000FDCF8EB50895FC0101900020E9F7319759
:1005A000AF01481B590BBC0180EB91E00C94B701E3
:1005B0008F929F92AF92BF920F931F93CF93DF932F
:1005C000CDB7DEB7A1970FB6F894DEBF0FBECDBF93
:1005D00019A2423008F44AE08E010F5D1F4F842EAD
:1005E000912CB12CA12CA50194010E941808E62F92
:1005F000B901CA01EA30F4F4E05DD801EE938D014F
:10060000232B242B252B79F790E080E0109719F00D
:10061000CD010E94CB02A1960FB6F894DEBF0FBEAB
:10062000CDBFDF91CF911F910F91BF90AF909F9061
:100630008F900895E95CE1CFCF92DF92EF92FF9225
:10064000CF93DF936B017C016DE280EB91E00E9420
:100650005702EC0166277727CB016C197D098E09BB
:100660009F094AE00E94D8028C0F9D1FDF91CF9115
:10067000FF90EF90DF90CF900895CF93DF930E948B
:10068000CB02EC018CE191E00E94CB028C0F9D1F0C
:10069000DF91CF9108950F931F9300915202109113
:1006A0005302209154023091550240E052E16AE732
:1006B00070E080E0041715072607370740F47695A9
:1006C0006795579547958F5F8630A1F787E0982FFC
:1006D000906A9695809581709CBD8DBD80E01F913C
:1006E0000F910C940F01CF93DF93D82FC62F0E9448
:1006F0004B038D2F80620E94C402809356028C2F80
:100700000E94C402DF91CF910C942301CF93C82F94
:100710000E944B038C2F0E94C402809356028FEFDD
:100720000E94C402C82F0E9423018C2FCF910895EC
:10073000CF93DF93EC0186E00E948603877D2297AA
:10074000E1F045E550E060E070E040936B025093CB
:100750006C0260936D0270936E02C0E0C82B6C2F28
:1007600086E00E94730386E00E94860391E0C8132E
:1007700090E0892FDF91CF9108954BE950E060E040
:1007800070E040936B0250936C0260936D02709323
:100790006E02C0E2E3CFFF920F931F93CF93DF93DC
:1007A000C82FF62E072F142F0E944B038C2F806228
:1007B0000E94C40280935602CF2DD02F115020F0FA
:1007C00089910E94C402FACFDF91CF911F910F91BE
:1007D000FF900C942301CF93C82F0E944B038C2FC2
:1007E0000E94C40280935602CF910C94230181EEA3
:1007F0000E94EB038091560208950E944B0380E50E
:100800000E94C4028093560283E70E94C4020C94A3
:100810002301BC01990F880B990B4AE00C94D80274
:100820001F920F920FB60F9211242F933F938F9325
:100830009F93AF93BF938091A8019091A901A0913C
:10084000AA01B091AB013091A70123E0230F2D370E
:1008500058F50196A11DB11D2093A7018093A80111
:100860009093A901A093AA01B093AB018091AC0130
:100870009091AD01A091AE01B091AF010196A11D83
:10088000B11D8093AC019093AD01A093AE01B093E4
:10089000AF01BF91AF919F918F913F912F910F9099
:1008A0000FBE0F901F90189526E8230F0296A11DEA
:1008B000B11DD2CF1F920F920FB60F9211242F931A
:1008C0003F934F935F936F937F938F939F93AF93D8
:1008D000BF93EF93FF9380EB91E00E943502FF916D
:1008E000EF91BF91AF919F918F917F916F915F91A8
:1008F0004F913F912F910F900FBE0F901F90189521
:100900001F920F920FB60F9211242F938F939F93E4
:10091000EF93FF93E091C001F091C1018081E091DC
:10092000C601F091C70182FD1BC090818091C90171
:100930008F5F8F732091CA01821741F0E091C90146
:10094000F0E0E055FE4F958F8093C901FF91EF9144
:100950009F918F912F910F900FBE0F901F90189520
:100960008081F4CFE0EBF1E01382128288EE93E015
:10097000A0E0B0E084839583A683B7838EE091E006
:100980009183808385EC90E09587848784EC90E068
:100990009787868780EC90E0918B808B81EC90E04C
:1009A000938B828B82EC90E0958B848B86EC90E02D
:1009B000978B868B118E128E138E148EEEE4F2E0DE
:1009C00087E0828388E0838380E896E9A8E9B0E045
:1009D00084839583A683B78380E28187158A168AEC
:1009E00085E0808F81E0818F128E85E090E0A0E02D
:1009F000B0E081A392A3A3A3B4A38DE492E091837A
:100A000080830895CF93DF93CDB7DEB764970FB699
:100A1000F894DEBF0FBECDBF789484B5826084BDEC
:100A200084B5816084BD85B5826085BD85B58160F2
:100A300085BD80916E00816080936E001092810070
:100A4000809181008260809381008091810081602B
:100A500080938100809180008160809380008091EC
:100A6000B10084608093B1008091B0008160809378
:100A7000B00080917A00846080937A0080917A003F
:100A8000826080937A0080917A00816080937A00FE
:100A900080917A00806880937A001092C10062E0B1
:100AA00083E00E942F0162E084E00E942F0162E057
:100AB00085E00E942F0162E086E00E942F0161E044
:100AC00082E00E942F01E091C001F091C10182E01B
:100AD0008083E091BC01F091BD011082E091BE01E4
:100AE000F091BF0180E180831092C801E091C401C0
:100AF000F091C50186E08083E091C201F091C301CD
:100B0000808180618083E091C201F091C301808186
:100B100088608083E091C201F091C3018081806888
:100B20008083E091C201F091C30180818F7D808339
:100B30008FE191E00E943D031FB7F89480918E01F0
:100B4000811127C0E6E9F0E08491EAEAF0E09491AF
:100B5000E82FF0E0EE0FFF1FE259FF4FA591B4918F
:100B6000EC91E92321F461E08AE00E94E10061E078
:100B70008AE00E942F018CB580618CBD8CB58064A9
:100B80008CBD61E08DE00E942F0161E08BE00E944E
:100B90002F0180918E018F5F80938E011FBF809106
:100BA00050028F3F09F48FC1909151029F3F09F489
:100BB0008AC1891741F061E00E942F0161E08091B4
:100BC00051020E942F0180E00E94260181E00E94D4
:100BD0000F0165E070E080E090E00E9485016FE524
:100BE00084E00E94730390E080E00E9498038DE10E
:100BF0000E948603182F0E94FD038DE10E94860348
:100C000091E0181390E090936302882341F0181349
:100C100002C00E94FD0360E08DE10E947303109208
:100C2000650260E08CE10E947303109267026FE33B
:100C300081E00E94730363E082E00E94730380E21C
:100C40008093570211E160915702812F0E94730334
:100C50001F5F1731C1F763E083E00E94730385E0F3
:100C6000809366026CE40E94730360E787E00E9451
:100C7000730382EE0E94EB030E94F7036CE780E0AF
:100C80000E94730380E00E9486038093620281FDCC
:100C90000BC0682F62606093620280E00E94730361
:100CA0008BE19EE40197F1F7809162028E3709F0A3
:100CB0000AC16CE685E00E94730382E090E00E9426
:100CC000980386E00E948603887F682F636086E031
:100CD0000E9473036FE584E00E94730340916602F3
:100CE00064E071E08AE00E94CB034091660264E018
:100CF00071E080E10E94CB034091660250E064E025
:100D000071E08DE592E00E94400880E00E9426019B
:100D100080916B0290916C028230910508F0D8C0EE
:100D20008091650281110E94F703609162026E7FDB
:100D30006093620280E00E947303409166026DE559
:100D400072E08AE00E94CB0382E00E948603E8E61C
:100D5000F0E0E49161E070E001C0660FEA95EAF727
:100D6000682B82E00E94730383E591E00E943D03BB
:100D70008E01075F1F4F1C8B0B8B80E0C82E80E01D
:100D8000D82E83E00E94B8009A83898384E00E9471
:100D9000B8009C838B8385E00E94B8009E838D837E
:100DA00086E00E94B80098878F838FB7F894809070
:100DB000A8019090A901A090AA01B090AB018FBFAB
:100DC000BE016F5F7F4F1B0120E031E087E991E0BA
:100DD0009A8B898BA3E9B1E0F101419151911F01F7
:100DE000F90161919F016417150681F0E989FA897B
:100DF00080829182A282B382B9016150710911E0AF
:100E00004115510509F410E0FB011083E989FA89C5
:100E10006191719181919191FA8BE98B2401350156
:100E2000461A570A680A790AC301B2016F3171057F
:100E30008105910528F061E0452B09F060E06C9395
:100E400011964B885C884214530431F6309193011B
:100E50003987209194012A87909195019B878091F1
:100E600096018C8740918F0134130DC03091900111
:100E7000231309C020919101921305C09091920112
:100E8000891709F48FC08091670210E004E0811196
:100E900007C010915702012F153008F004E0101B15
:100EA0000E944B0380EA0E94C40280935602BE0156
:100EB000675F7F4F5B01015098F0F50181915F0101
:100EC0000E94C402F8CF87E391E00E943D03FFCF68
:100ED000880F991F880F991F05970197F1F720CF69
:100EE000115020F080E00E94C402FACF0E9423013A
:100EF00081E00E9426018FB7F8948090A80190901D
:100F0000A901A090AA01B090AB018FBF8FEF0E9402
:100F1000EB0380915602807331F52FB7F8948091DE
:100F2000A8019091A901A091AA01B091AB012FBF96
:100F300088199909AA09BB0980369105A105B1054F
:100F400028F382EE0E94EB030E94F703809169026E
:100F500090916A02019690936A028093690280E000
:100F60000E94260190CF80E00E94260160E787E082
:100F70000E9473038091560284FF26C00E94F703EB
:100F800086E791E00E943D0361E082E00E94E1007B
:100F900065E070E080E090E00E94850160E082E022
:100FA0000E94E1006AE070E080E090E00E9485012C
:100FB000C114D10409F4E5CE0E942102882309F46A
:100FC000E0CE0E940000DDCE85E891E00E94CB02D9
:100FD000898590E00E9409048CE891E00E94CB0290
:100FE0008A8590E00E9409048CE891E00E94CB027F
:100FF0008B8590E00E9409048CE891E00E94CB026E
:101000006C8570E090E080E04AE00E94D8028CE1BC
:1010100091E00E94CB0289859A85AB85BC8580933F
:101020008F0190939001A0939101B0939201ACCF66
:10103000A1E21A2EAA1BBB1BFD010DC0AA1FBB1FDC
:10104000EE1FFF1FA217B307E407F50720F0A21B4E
:10105000B30BE40BF50B661F771F881F991F1A94BB
:1010600069F760957095809590959B01AC01BD01E5
:10107000CF010895EE0FFF1F0590F491E02D099424
:10108000FB01DC0102C001900D9241505040D8F7A5
:061090000895F894FFCF63
:1010960001010101303030303100000000005702FC
:1010A600B701E401A4021502F30107020D0A005478
:1010B60072616E736D697474657220737461727493
:1010C600696E672E2E2E0052463234206D6F64757F
:1010D6006C65206E6F7420726573706F6E64696ED6
:1010E6006721005472616E736D6974746572207243
:1010F6006561647920286D6F6D656E746172792003
:101106006D6F646529004661696C656420746F20A3
:0E11160073656E640053656E743A20002C0001
:00000001FF
