:100000000C9465000C948D000C948D000C948D0064
:100010000C948D000C948D000C948D000C948D002C
:100020000C948D000C948D000C948D000C948D001C
:100030000C948D000C948D000C948D000C948D000C
:100040000C9410040C948D000C9480040C945A04AD
:100050000C948D000C948D000C948D000C948D00EC
:100060000C948D000C948D00000102030405000027
:100070000000240027002A000000000025002800BE
:100080002B000000000023002600290004040404C3
:100090000404040402020202020203030303030332
:1000A000010204081020408001020408102001020F
:1000B00004081020000000080002010000030407EB
:1000C0000000000000000000B20411241FBECFEFAA
:1000D000D8E0DEBFCDBF22E0A2E9B1E001C01D92B1
:1000E000A837B207E1F711E0A0E0B1E0E6ECF0E1FB
:1000F00002C005900D92A239B107D9F710E0C5E60C
:10010000D0E004C02197FE010E945208C436D107F6
:10011000C9F70E9402050C9461080C94000083301A
:1001200081F028F4813099F08230A9F00895873069
:10013000A9F08830C9F08430B1F4809180008F7DBF
:1001400003C0809180008F7780938000089584B5EC
:100150008F7784BD089584B58F7DFBCF8091B000EB
:100160008F778093B00008958091B0008F7DF9CF94
:10017000CF93DF93282F30E0F901EC54FF4F8491A7
:10018000F901E056FF4FD491F901E457FF4FC491B4
:10019000CC23A1F081110E948F00EC2FF0E0EE0F34
:1001A000FF1FEE57FF4FA591B491EC91ED2381E035
:1001B00090E009F480E0DF91CF91089580E090E035
:1001C000FACF1F93CF93DF93282F30E0F901EC543F
:1001D000FF4F8491F901E056FF4FD491F901E457A4
:1001E000FF4FC491CC23A9F0162F81110E948F00DC
:1001F000EC2FF0E0EE0FFF1FE858FF4FA591B491F0
:100200008FB7F894EC91111108C0D095DE23DC93E0
:100210008FBFDF91CF911F910895DE2BF8CF682F0C
:10022000809155020E94E1008091730290917402C6
:100230008230910538F0880F991F880F991F059714
:100240000197F1F7089581E00C940F01682F8091D8
:1002500054029091550289130C94E1000895CF93B4
:10026000DF9390E0FC01E056FF4F249184579F4FAD
:10027000FC0184918823D1F090E0880F991FFC0144
:10028000E259FF4FA591B491FC01E858FF4FC59189
:10029000D491623071F49FB7F8943C91822F80958D
:1002A00083238C93E8812E2B28839FBFDF91CF91EE
:1002B00008958FB7F894EC912E2B2C938FBFF6CF27
:1002C0003FB7F8948091B0019091B101A091B20133
:1002D000B091B30126B5A89B05C02F3F19F0019638
:1002E000A11DB11D3FBFBA2FA92F982F8827BC0190
:1002F000CD01620F711D811D911D42E0660F771FB8
:10030000881F991F4A95D1F708958F929F92AF92B7
:10031000BF92CF92DF92EF92FF924B015C010E945D
:1003200060016B017C010E9460016C197D098E09DE
:100330009F09683E734081059105A8F321E0821A68
:100340009108A108B10888EEC80E83E0D81EE11C10
:10035000F11C81149104A104B10429F7FF90EF90DE
:10036000DF90CF90BF90AF909F908F900895AF9205
:10037000BF92CF92DF92EF92FF920F931F93CF9392
:10038000DF936C017B018B01040F151FEB015E01F4
:10039000AE18BF08C017D10759F06991D601ED9189
:1003A000FC910190F081E02DC6010995892B79F728
:1003B000C501DF91CF911F910F91FF90EF90DF90DA
:1003C000CF90BF90AF900895FC01538D448D252FA1
:1003D00030E0842F90E0821B930B541710F0CF96DF
:1003E000089501970895FC01918D828D981761F011
:1003F000A28DAE0FBF2FB11D5D968C91928D9F5F28
:100400009F73928F90E008958FEF9FEF0895FC0106
:10041000918D828D981731F0828DE80FF11D858DB9
:1004200090E008958FEF9FEF0895FC01918D228D4C
:10043000892F90E0805C9F4F821B91098F739927D1
:10044000089584EB91E00E94150221E0892B09F4C4
:1004500020E0822F089580E090E0892B29F00E940F
:10046000210281110C9400000895FC01A48DA80FB5
:10047000B92FB11DA35ABF4F2C91848D90E00196E6
:100480008F739927848FA689B7892C93A089B18906
:100490008C91837080648C93938D848D981306C0A7
:1004A0000288F389E02D80818F7D80830895EF920B
:1004B000FF920F931F93CF93DF93EC0181E0888F1E
:1004C0009B8D8C8D98131AC0E889F989808185FFEE
:1004D00015C09FB7F894EE89FF896083E889F98990
:1004E00080818370806480839FBF81E090E0DF9192
:1004F000CF911F910F91FF90EF900895F62E0B8DE5
:1005000010E00F5F1F4F0F731127E02E8C8D8E119F
:100510000CC00FB607FCFACFE889F989808185FF06
:10052000F5CFCE010E943502F1CFEB8DEC0FFD2F00
:10053000F11DE35AFF4FF0829FB7F8940B8FEA89C1
:10054000FB8980818062CFCFCF93DF93EC01888DD0
:100550008823B9F0AA89BB89E889F9898C9185FD3E
:1005600003C0808186FD0DC00FB607FCF7CF8C91CC
:1005700085FFF2CF808185FFEDCFCE010E9435024D
:10058000E9CFDF91CF9108958EBD00000DB407FE35
:10059000FDCF8EB50895FC0101900020E9F7319759
:1005A000AF01481B590BBC0184EB91E00C94B701DF
:1005B0008F929F92AF92BF920F931F93CF93DF932F
:1005C000CDB7DEB7A1970FB6F894DEBF0FBECDBF93
:1005D00019A2423008F44AE08E010F5D1F4F842EAD
:1005E000912CB12CA12CA50194010E943008E62F7A
:1005F000B901CA01EA30F4F4E05DD801EE938D014F
:10060000232B242B252B79F790E080E0109719F00D
:10061000CD010E94CB02A1960FB6F894DEBF0FBEAB
:10062000CDBFDF91CF911F910F91BF90AF909F9061
:100630008F900895E95CE1CFCF92DF92EF92FF9225
:10064000CF93DF936B017C016DE284EB91E00E941C
:100650005702EC0166277727CB016C197D098E09BB
:100660009F094AE00E94D8028C0F9D1FDF91CF9115
:10067000FF90EF90DF90CF900895CF93DF930E948B
:10068000CB02EC018CE191E00E94CB028C0F9D1F0C
:10069000DF91CF9108950F931F930091560210910F
:1006A0005702209158023091590240E052E16AE726
:1006B00070E080E0041715072607370740F47695A9
:1006C0006795579547958F5F8630A1F787E0982FFC
:1006D000906A9695809581709CBD8DBD80E01F913C
:1006E0000F910C940F01CF93DF93D82FC62F0E9448
:1006F0004B038D2F80620E94C40280935A028C2F7C
:100700000E94C402DF91CF910C942301CF93C82F94
:100710000E944B038C2F0E94C40280935A028FEFD9
:100720000E94C402C82F0E9423018C2FCF910895EC
:10073000CF93DF93EC0186E00E948603877D2297AA
:10074000E1F045E550E060E070E040936F025093C7
:1007500070026093710270937202C0E0C82B6C2F1C
:1007600086E00E94730386E00E94860391E0C8132E
:1007700090E0892FDF91CF9108954BE950E060E040
:1007800070E040936F025093700260937102709317
:100790007202C0E2E3CFFF920F931F93CF93DF93D8
:1007A000C82FF62E072F142F0E944B038C2F806228
:1007B0000E94C40280935A02CF2DD02F115020F0F6
:1007C00089910E94C402FACFDF91CF911F910F91BE
:1007D000FF900C942301CF93C82F0E944B038C2FC2
:1007E0000E94C40280935A02CF910C94230181EE9F
:1007F0000E94EB0380915A0208950E944B0380E50A
:100800000E94C40280935A0283E70E94C4020C949F
:100810002301BC01990F880B990B4AE00C94D80274
:100820001F920F920FB60F9211242F933F938F9325
:100830009F93AF93BF938091AC019091AD01A09134
:10084000AE01B091AF013091AB0123E0230F2D3702
:1008500058F50196A11DB11D2093AB018093AC0109
:100860009093AD01A093AE01B093AF018091B00120
:100870009091B101A091B201B091B3010196A11D77
:10088000B11D8093B0019093B101A093B201B093D8
:10089000B301BF91AF919F918F913F912F910F9095
:1008A0000FBE0F901F90189526E8230F0296A11DEA
:1008B000B11DD2CF1F920F920FB60F9211242F931A
:1008C0003F934F935F936F937F938F939F93AF93D8
:1008D000BF93EF93FF9384EB91E00E943502FF9169
:1008E000EF91BF91AF919F918F917F916F915F91A8
:1008F0004F913F912F910F900FBE0F901F90189521
:100900001F920F920FB60F9211242F938F939F93E4
:10091000EF93FF93E091C401F091C5018081E091D4
:10092000CA01F091CB0182FD1BC090818091CD0165
:100930008F5F8F732091CE01821741F0E091CD013E
:10094000F0E0EC54FE4F958F8093CD01FF91EF9135
:100950009F918F912F910F900FBE0F901F90189520
:100960008081F4CFE4EBF1E01382128288EE93E011
:10097000A0E0B0E084839583A683B7838EE091E006
:100980009183808385EC90E09587848784EC90E068
:100990009787868780EC90E0918B808B81EC90E04C
:1009A000938B828B82EC90E0958B848B86EC90E02D
:1009B000978B868B118E128E138E148EE2E5F2E0E9
:1009C00087E0828388E0838380E896E9A8E9B0E045
:1009D00084839583A683B78380E28187158A168AEC
:1009E00085E0808F81E0818F128E85E090E0A0E02D
:1009F000B0E081A392A3A3A3B4A381E592E0918385
:100A000080830895CF93DF93CDB7DEB764970FB699
:100A1000F894DEBF0FBECDBF789484B5826084BDEC
:100A200084B5816084BD85B5826085BD85B58160F2
:100A300085BD80916E00816080936E001092810070
:100A4000809181008260809381008091810081602B
:100A500080938100809180008160809380008091EC
:100A6000B10084608093B1008091B0008160809378
:100A7000B00080917A00846080937A0080917A003F
:100A8000826080937A0080917A00816080937A00FE
:100A900080917A00806880937A001092C10062E0B1
:100AA00083E00E942F0162E084E00E942F0162E057
:100AB00085E00E942F0162E086E00E942F0161E044
:100AC00082E00E942F01E091C401F091C50182E013
:100AD0008083E091C001F091C1011082E091C201D8
:100AE000F091C30180E180831092CC01E091C801B4
:100AF000F091C90186E08083E091C601F091C701C1
:100B0000808180618083E091C601F091C70180817E
:100B100088608083E091C601F091C7018081806880
:100B20008083E091C601F091C70180818F7D808331
:100B30008FE191E00E943D0368EC70E080E090E07E
:100B40000E94850106E910E05AEAE52E50E0F52EF4
:100B500060E2B62E75E0A72EEBE1CE2EEEE4DE2E9F
:100B60009FB6F89480919201811125C0F80184917B
:100B7000F7019491E82FF0E0EE0FFF1FE259FF4FCD
:100B8000A591B4918C91982321F461E08AE00E94B0
:100B9000E10061E08AE00E942F018CB580618CBD8C
:100BA0008CB580648CBD61E08DE00E942F0161E016
:100BB0008BE00E942F01809192018F5F80939201C0
:100BC0009FBE809154028F3F09F48FC190915502CE
:100BD0009F3F09F48AC1891741F061E00E942F010B
:100BE00061E0809155020E942F0180E00E94260161
:100BF00081E00E940F0165E070E080E090E00E94DB
:100C000085016FE584E00E94730390E080E00E941C
:100C100098038DE10E948603982E0E94FD038DE1CA
:100C20000E94860391E0981290E0909367028823D7
:100C300041F0981202C00E94FD0360E08DE10E9425
:100C400073031092690260E08CE10E9473031092BA
:100C50006B026FE381E00E94730363E082E00E9415
:100C60007303B0925B0231E1932E60915B02892D98
:100C70000E9473039394F7E19F12F7CF63E083E040
:100C80000E947303A0926A026CE485E00E947303E1
:100C900060E787E00E94730382EE0E94EB030E94EC
:100CA000F7036CE780E00E94730380E00E948603F4
:100CB0008093660281FD0AC0682F626060936602BD
:100CC00080E00E947303C6010197F1F780916602EC
:100CD0008E3709F00AC16CE685E00E94730382E05A
:100CE00090E00E94980386E00E948603887F682F28
:100CF000636086E00E9473036FE584E00E947303E3
:100D000040916A0264E071E08AE00E94CB03409166
:100D10006A0264E071E080E10E94CB0340916A02C4
:100D200050E064E071E081E692E00E94580880E0C3
:100D30000E94260180916F0290917002823091058D
:100D400008F0DEC08091690281110E94F703609172
:100D500066026E7F6093660280E00E94730340919A
:100D60006A0261E672E08AE00E94CB0382E00E94A0
:100D70008603E8E6F0E0E49161E070E001C0660F10
:100D8000EA95EAF7682B82E00E94730386E591E01A
:100D90000E943D038E01075F1F4F1C8B0B8B80E071
:100DA000C82E80E0D82E83E00E94B8009A83898301
:100DB00084E00E94B8009C838B8385E00E94B80089
:100DC0009E838D8386E00E94B80098878F838FB7BB
:100DD000F8948090AC019090AD01A090AE01B090DD
:100DE000AF018FBFBE016F5F7F4F1B0120E031E07D
:100DF0008BE991E09A8B898BA7E9B1E0F1014191F0
:100E000051911F01F90161919F016417150681F04D
:100E1000E989FA8980829182A282B382B901615004
:100E2000710911E04115510509F410E0FB0110832F
:100E3000E989FA896191719181919191FA8BE98B9C
:100E400024013501461A570A680A790AC301B2011A
:100E50006F3171058105910528F061E0452B09F09E
:100E600060E06C9311964B885C884214530431F611
:100E7000309197013987209198012A8790919901A3
:100E80009B8780919A018C874091930134130DC008
:100E900030919401231309C020919501921305C04C
:100EA00090919601891709F495C080916B0210E02A
:100EB00004E0811107C010915B02012F153008F08A
:100EC00004E0101B0E944B0380EA0E94C40280933E
:100ED0005A02BE01675F7F4F5B010150C8F0F50108
:100EE00081915F010E94C402F8CF87E391E00E94E4
:100EF0003D0364EF71E080E090E00E94850130CE18
:100F0000880F991F880F991F05970197F1F71ACF3E
:100F1000115020F080E00E94C402FACF0E94230109
:100F200081E00E9426018FB7F8948090AC019090E8
:100F3000AD01A090AE01B090AF018FBF8FEF0E94C6
:100F4000EB0380915A02807331F52FB7F8948091AA
:100F5000AC019091AD01A091AE01B091AF012FBF56
:100F600088199909AA09BB0980369105A105B1051F
:100F700028F382EE0E94EB030E94F70380916D023A
:100F800090916E02019690936E0280936D0280E0C4
:100F90000E9426018ACF80E00E94260160E787E058
:100FA0000E94730380915A0284FF26C00E94F703B7
:100FB00089E791E00E943D0361E082E00E94E10048
:100FC00065E070E080E090E00E94850160E082E0F2
:100FD0000E94E1006AE070E080E090E00E948501FC
:100FE000C114D10409F4DFCE0E942102882309F440
:100FF000DACE0E940000D7CE88E891E00E94CB02B2
:10100000898590E00E9409048FE891E00E94CB025C
:101010008A8590E00E9409048FE891E00E94CB024B
:101020008B8590E00E9409048FE891E00E94CB023A
:101030006C8570E090E080E04AE00E94D8028CE18C
:1010400091E00E94CB0289859A85AB85BC8580930F
:10105000930190939401A0939501B0939601ACCF26
:10106000A1E21A2EAA1BBB1BFD010DC0AA1FBB1FAC
:10107000EE1FFF1FA217B307E407F50720F0A21B1E
:10108000B30BE40BF50B661F771F881F991F1A948B
:1010900069F760957095809590959B01AC01BD01B5
:1010A000CF010895EE0FFF1F0590F491E02D0994F4
:1010B000FB01DC0102C001900D9241505040D8F775
:0610C0000895F894FFCF33
:1010C60001010101303030303100000000005702CC
:1010D600B701E401A4021502F30107020D0A005448
:1010E60072616E736D697474657220737461727463
:1010F600696E672E2E2E005246323420696E697450
:10110600206661696C6564202D2072657472796948
:101116006E672E2E2E005472616E736D697474653F
:101126007220726561647920286D6F6D656E7461D9
:101136007279206D6F646529004661696C6564206B
:10114600746F2073656E640053656E743A20002CCC
:02115600000097
:00000001FF
